:101D800001C010C1112484B7882371F0982F9A7074
:101D9000923051F081FF02C097EF94BF282E80E06F
:101DA000EED0EEE0FF2709948EE0E9D0B89A93E0F8
:101DB000D92ECC24C39425E0922E32ECE32E3EE0C3
:101DC000F32E8F2D806C882EC6D0813479F4C3D049
:101DD000182FD9D0123811F480E004C088E01138EF
:101DE00009F083E0A9D080E1A7D0EECF823419F4C6
:101DF00084E1D1D0F8CF853411F485E0FACF853570
:101E000041F4A9D0C82FA7D0D82FCC0FDD1FBBD04D
:101E1000EACF863519F484E0BED0DECF843609F0EF
:101E200053C099D098D0782E96D0682E572C00E6C3
:101E300010E05801EFEFAE1ABE0A8DD0F801808392
:101E40005A9485015110F5CF9ED02097F1F430912E
:101E500060003093E400209161002093E500E0925F
:101E600060008092610040917C004093E6004091C8
:101E70007D004093E700832F922F0E9780937C0084
:101E8000892F8F70806C80937D00F5E46F1201C004
:101E9000FFCFFE01D7BEE89507B600FCFDCFFE01DF
:101EA000A0E6B0E08D919D910C01C7BEE89511248C
:101EB00032967A947A947110F5CFFE0197BEE89528
:101EC00007B600FCFDCF8FCF843739F544D043D01F
:101ED000B82E41D058D08E010115110549F48091DA
:101EE000E4002AD0BA940F5F1F4FB110F5CF7BCF1B
:101EF0000130110519F48091E500F3CF0C31110583
:101F000019F48091E600EDCF0D31110519F480919F
:101F1000E700E7CFF8018491E4CF853739F433D077
:101F20008EE10AD083E908D08CE05CCF813509F0DE
:101F30006ECF88E024D06BCF2AE030E08095089403
:101F400010F4C09802C0C09A000015D014D0869535
:101F50002A95B1F70895A89529E030E0B199FECF10
:101F60000AD009D008D08894B19908942A9511F024
:101F70008795F7CF08959EE09A95F1F7089598E137
:101F800091BD81BD0895E7DF803219F088E0F7DF69
:101F9000FFCF84E1D1CFCF93C82FDDDFC150E9F768
:101FA000CF91F1CFFC010A0167BFE895112407B674
:061FB00000FCFDCF0895C6
:021FFE000008D9
:0400000300001D805C
:00000001FF
